{
  "contracts/Practice2.sol": {
    "Practice2": {
      "abi": [
        {
          "inputs": [
            {
              "internalType": "uint256",
              "name": "_data",
              "type": "uint256"
            }
          ],
          "name": "addEntity",
          "outputs": [
            {
              "internalType": "bool",
              "name": "success",
              "type": "bool"
            }
          ],
          "stateMutability": "nonpayable",
          "type": "function"
        },
        {
          "inputs": [
            {
              "internalType": "address",
              "name": "_user",
              "type": "address"
            },
            {
              "internalType": "uint256",
              "name": "_data",
              "type": "uint256"
            }
          ],
          "name": "updateEntity",
          "outputs": [
            {
              "internalType": "bool",
              "name": "success",
              "type": "bool"
            }
          ],
          "stateMutability": "nonpayable",
          "type": "function"
        }
      ],
      "evm": {
        "bytecode": {
          "linkReferences": {},
          "object": "608060405234801561001057600080fd5b5061015d806100206000396000f3fe608060405234801561001057600080fd5b50600436106100365760003560e01c8063070c38c01461003b578063472fa6dc1461007d575b600080fd5b6100696100493660046100d6565b6001600160a01b0391909116600090815260208190526040902055600190565b604051901515815260200160405180910390f35b61006961008b36600461010e565b6040805180820182529182523360208084018281526000928352908290529190209151825551600191820180546001600160a01b0319166001600160a01b0390921691909117905590565b600080604083850312156100e957600080fd5b82356001600160a01b038116811461010057600080fd5b946020939093013593505050565b60006020828403121561012057600080fd5b503591905056fea26469706673582212203aeb9018950768bb3156eb45233de2de6731eee39286bf5ebb4417bb1a22d61e64736f6c63430008090033",
          "opcodes": "PUSH1 0x80 PUSH1 0x40 MSTORE CALLVALUE DUP1 ISZERO PUSH2 0x10 JUMPI PUSH1 0x0 DUP1 REVERT JUMPDEST POP PUSH2 0x15D DUP1 PUSH2 0x20 PUSH1 0x0 CODECOPY PUSH1 0x0 RETURN INVALID PUSH1 0x80 PUSH1 0x40 MSTORE CALLVALUE DUP1 ISZERO PUSH2 0x10 JUMPI PUSH1 0x0 DUP1 REVERT JUMPDEST POP PUSH1 0x4 CALLDATASIZE LT PUSH2 0x36 JUMPI PUSH1 0x0 CALLDATALOAD PUSH1 0xE0 SHR DUP1 PUSH4 0x70C38C0 EQ PUSH2 0x3B JUMPI DUP1 PUSH4 0x472FA6DC EQ PUSH2 0x7D JUMPI JUMPDEST PUSH1 0x0 DUP1 REVERT JUMPDEST PUSH2 0x69 PUSH2 0x49 CALLDATASIZE PUSH1 0x4 PUSH2 0xD6 JUMP JUMPDEST PUSH1 0x1 PUSH1 0x1 PUSH1 0xA0 SHL SUB SWAP2 SWAP1 SWAP2 AND PUSH1 0x0 SWAP1 DUP2 MSTORE PUSH1 0x20 DUP2 SWAP1 MSTORE PUSH1 0x40 SWAP1 KECCAK256 SSTORE PUSH1 0x1 SWAP1 JUMP JUMPDEST PUSH1 0x40 MLOAD SWAP1 ISZERO ISZERO DUP2 MSTORE PUSH1 0x20 ADD PUSH1 0x40 MLOAD DUP1 SWAP2 SUB SWAP1 RETURN JUMPDEST PUSH2 0x69 PUSH2 0x8B CALLDATASIZE PUSH1 0x4 PUSH2 0x10E JUMP JUMPDEST PUSH1 0x40 DUP1 MLOAD DUP1 DUP3 ADD DUP3 MSTORE SWAP2 DUP3 MSTORE CALLER PUSH1 0x20 DUP1 DUP5 ADD DUP3 DUP2 MSTORE PUSH1 0x0 SWAP3 DUP4 MSTORE SWAP1 DUP3 SWAP1 MSTORE SWAP2 SWAP1 KECCAK256 SWAP2 MLOAD DUP3 SSTORE MLOAD PUSH1 0x1 SWAP2 DUP3 ADD DUP1 SLOAD PUSH1 0x1 PUSH1 0x1 PUSH1 0xA0 SHL SUB NOT AND PUSH1 0x1 PUSH1 0x1 PUSH1 0xA0 SHL SUB SWAP1 SWAP3 AND SWAP2 SWAP1 SWAP2 OR SWAP1 SSTORE SWAP1 JUMP JUMPDEST PUSH1 0x0 DUP1 PUSH1 0x40 DUP4 DUP6 SUB SLT ISZERO PUSH2 0xE9 JUMPI PUSH1 0x0 DUP1 REVERT JUMPDEST DUP3 CALLDATALOAD PUSH1 0x1 PUSH1 0x1 PUSH1 0xA0 SHL SUB DUP2 AND DUP2 EQ PUSH2 0x100 JUMPI PUSH1 0x0 DUP1 REVERT JUMPDEST SWAP5 PUSH1 0x20 SWAP4 SWAP1 SWAP4 ADD CALLDATALOAD SWAP4 POP POP POP JUMP JUMPDEST PUSH1 0x0 PUSH1 0x20 DUP3 DUP5 SUB SLT ISZERO PUSH2 0x120 JUMPI PUSH1 0x0 DUP1 REVERT JUMPDEST POP CALLDATALOAD SWAP2 SWAP1 POP JUMP INVALID LOG2 PUSH5 0x6970667358 0x22 SLT KECCAK256 GASPRICE 0xEB SWAP1 XOR SWAP6 SMOD PUSH9 0xBB3156EB45233DE2DE PUSH8 0x31EEE39286BF5EBB DIFFICULTY OR 0xBB BYTE 0x22 0xD6 0x1E PUSH5 0x736F6C6343 STOP ADDMOD MULMOD STOP CALLER "
        },
        "methodIdentifiers": {
          "addEntity(uint256)": "472fa6dc",
          "updateEntity(address,uint256)": "070c38c0"
        }
      }
    }
  }
}