{
  "_format": "hh-sol-artifact-1",
  "contractName": "Practice1",
  "sourceName": "contracts/Practice1.sol",
  "abi": [
    {
      "inputs": [
        {
          "internalType": "uint256",
          "name": "_data",
          "type": "uint256"
        }
      ],
      "name": "addEntity",
      "outputs": [
        {
          "internalType": "bool",
          "name": "success",
          "type": "bool"
        }
      ],
      "stateMutability": "nonpayable",
      "type": "function"
    },
    {
      "inputs": [
        {
          "internalType": "uint256",
          "name": "",
          "type": "uint256"
        }
      ],
      "name": "entities",
      "outputs": [
        {
          "internalType": "uint256",
          "name": "data",
          "type": "uint256"
        },
        {
          "internalType": "address",
          "name": "_address",
          "type": "address"
        }
      ],
      "stateMutability": "view",
      "type": "function"
    },
    {
      "inputs": [
        {
          "internalType": "uint256",
          "name": "_index",
          "type": "uint256"
        },
        {
          "internalType": "uint256",
          "name": "_data",
          "type": "uint256"
        }
      ],
      "name": "updateEntity",
      "outputs": [
        {
          "internalType": "bool",
          "name": "success",
          "type": "bool"
        }
      ],
      "stateMutability": "nonpayable",
      "type": "function"
    }
  ],
  "bytecode": "0x608060405234801561001057600080fd5b50610230806100206000396000f3fe608060405234801561001057600080fd5b50600436106100415760003560e01c8063472fa6dc146100465780636331883b146100ff57806395d1ca2f1461012f575b600080fd5b6100ea6100543660046101a9565b604080518082019091529081523360208201908152600080546001808201835591805292517f290decd9548b62a8d60345a988386fc84ba6bc95484008f6362f93160ef3e56360029094029384015590517f290decd9548b62a8d60345a988386fc84ba6bc95484008f6362f93160ef3e56490920180546001600160a01b0319166001600160a01b039093169290921790915590565b60405190151581526020015b60405180910390f35b61011261010d3660046101a9565b610142565b604080519283526001600160a01b039091166020830152016100f6565b6100ea61013d3660046101c2565b610179565b6000818154811061015257600080fd5b6000918252602090912060029091020180546001909101549091506001600160a01b031682565b6000816000848154811061018f5761018f6101e4565b600091825260209091206002909102015550600192915050565b6000602082840312156101bb57600080fd5b5035919050565b600080604083850312156101d557600080fd5b50508035926020909101359150565b634e487b7160e01b600052603260045260246000fdfea264697066735822122071414352976f884f1a3259fc0dd59f5e6983b105042623a67a37468041914a4364736f6c63430008090033",
  "linkReferences": {},
  "deployedLinkReferences": {}
}