{
  "_format": "hh-sol-artifact-1",
  "contractName": "Practice1",
  "sourceName": "contracts/Practice1.sol",
  "abi": [
    {
      "inputs": [
        {
          "internalType": "uint256",
          "name": "_data",
          "type": "uint256"
        },
        {
          "internalType": "address",
          "name": "_address2",
          "type": "address"
        }
      ],
      "name": "addEntity",
      "outputs": [],
      "stateMutability": "nonpayable",
      "type": "function"
    },
    {
      "inputs": [
        {
          "internalType": "uint256",
          "name": "",
          "type": "uint256"
        }
      ],
      "name": "entities",
      "outputs": [
        {
          "internalType": "uint256",
          "name": "data",
          "type": "uint256"
        },
        {
          "internalType": "address",
          "name": "_address",
          "type": "address"
        }
      ],
      "stateMutability": "view",
      "type": "function"
    },
    {
      "inputs": [
        {
          "internalType": "uint256",
          "name": "_index",
          "type": "uint256"
        },
        {
          "internalType": "uint256",
          "name": "_data",
          "type": "uint256"
        },
        {
          "internalType": "address",
          "name": "_address2",
          "type": "address"
        }
      ],
      "name": "updateEntity",
      "outputs": [],
      "stateMutability": "nonpayable",
      "type": "function"
    }
  ],
  "bytecode": "0x608060405234801561001057600080fd5b50610298806100206000396000f3fe608060405234801561001057600080fd5b50600436106100415760003560e01c80636331883b1461004657806372f478421461007a578063bc7887631461008f575b600080fd5b6100596100543660046101b6565b610132565b604080519283526001600160a01b0390911660208301520160405180910390f35b61008d6100883660046101eb565b610169565b005b61008d61009d366004610220565b604080518082019091529182526001600160a01b03908116602083019081526000805460018101825590805292517f290decd9548b62a8d60345a988386fc84ba6bc95484008f6362f93160ef3e563600290940293840155517f290decd9548b62a8d60345a988386fc84ba6bc95484008f6362f93160ef3e56490920180546001600160a01b03191692909116919091179055565b6000818154811061014257600080fd5b6000918252602090912060029091020180546001909101549091506001600160a01b031682565b600080848154811061017d5761017d61024c565b6000918252602090912060029091020192835550600190910180546001600160a01b0319166001600160a01b0390921691909117905550565b6000602082840312156101c857600080fd5b5035919050565b80356001600160a01b03811681146101e657600080fd5b919050565b60008060006060848603121561020057600080fd5b8335925060208401359150610217604085016101cf565b90509250925092565b6000806040838503121561023357600080fd5b82359150610243602084016101cf565b90509250929050565b634e487b7160e01b600052603260045260246000fdfea2646970667358221220bc8b6e5e877f2c8f2b3825edc300002884f57429f2023bb95b8a6b29f4e71b4164736f6c63430008090033",
  "linkReferences": {},
  "deployedLinkReferences": {}
}