{
  "_format": "hh-sol-artifact-1",
  "contractName": "Practice2",
  "sourceName": "contracts/Practice2.sol",
  "abi": [
    {
      "inputs": [
        {
          "internalType": "uint256",
          "name": "_data",
          "type": "uint256"
        }
      ],
      "name": "addEntity",
      "outputs": [
        {
          "internalType": "bool",
          "name": "success",
          "type": "bool"
        }
      ],
      "stateMutability": "nonpayable",
      "type": "function"
    },
    {
      "inputs": [
        {
          "internalType": "address",
          "name": "_user",
          "type": "address"
        },
        {
          "internalType": "uint256",
          "name": "_data",
          "type": "uint256"
        }
      ],
      "name": "updateEntity",
      "outputs": [
        {
          "internalType": "bool",
          "name": "success",
          "type": "bool"
        }
      ],
      "stateMutability": "nonpayable",
      "type": "function"
    }
  ],
  "bytecode": "0x608060405234801561001057600080fd5b5061015d806100206000396000f3fe608060405234801561001057600080fd5b50600436106100365760003560e01c8063070c38c01461003b578063472fa6dc1461007d575b600080fd5b6100696100493660046100d6565b6001600160a01b0391909116600090815260208190526040902055600190565b604051901515815260200160405180910390f35b61006961008b36600461010e565b6040805180820182529182523360208084018281526000928352908290529190209151825551600191820180546001600160a01b0319166001600160a01b0390921691909117905590565b600080604083850312156100e957600080fd5b82356001600160a01b038116811461010057600080fd5b946020939093013593505050565b60006020828403121561012057600080fd5b503591905056fea26469706673582212203aeb9018950768bb3156eb45233de2de6731eee39286bf5ebb4417bb1a22d61e64736f6c63430008090033",
  "linkReferences": {},
  "deployedLinkReferences": {}
}